:020000020000FC
:040000000C944B0011
:10002C000C9423004CA1144CA2044C8C3454940416
:10003C0061A41462A40464A414002A9400E02016A1
:10004C0009F00DC005E1F01621F4E0E3F0E000E06A
:10005C00F02E0590F3941590F3942590F39400E012
:10006C00402E022D0A301CF043940A50FBCF302E48
:10007C0000E2400E00E1300E189560E05EE340E8CF
:10008C00415050406040E0F708950FEF0DBF08E07D
:10009C000EBF04EF0093890004E20093880000E097
:1000AC00009380000CE00093810000916F000260CF
:1000BC0000936F000FEF0AB904B9E0E3F0E000E041
:1000CC00F02E0590F3941590F3942590F394789476
:0E00DC000BB835B8D2DF1BB845B8CFDFF9CF6F
:00000001FF
