:020000020000FC
:040000000C9450000C
:10002C000C9423004CA1144CA2044C8C3454940416
:10003C0061A41462A40464A414000F930FB70F936B
:10004C002A9400E0201669F405E1501621F4E0E34F
:10005C00F0E000E0502E05905394159053942590A9
:10006C00539400E0402E022D0A301CF043940A50A9
:10007C00FBCF302E00E2400E00E1300E0F910FBF8F
:10008C000F91189560E05EE340E8415050406040AD
:10009C00E0F708950FEF0DBF08E00EBF04EF0093DB
:1000AC00890004E20093880000E0009380000CE0DB
:1000BC000093810000916F00026000936F000FEFBE
:1000CC000AB904B9E0E3F0E000E0502E0590539437
:1000DC00159053942590539400E0402E022D0A3035
:1000EC001CF043940A50FBCF302E00E2400E00E18E
:1000FC00300E78940BB835B8C5DF1BB845B8C2DFE5
:02010C00F9CF29
:00000001FF
