:020000020000FC
:040000000C943A0022
:10002C000C941800103019F00ED010E002C002D061
:10003C0011E0189509E4002E04EA102E09E1202E97
:10004C0001E2302E089502E5002E09E8102E07E19A
:10005C00202E03E2302E089560E05EE340E841502C
:10006C0050406040E0F708950FEF0DBF08E00EBF61
:10007C0004EF0093890004E20093880000E00093F1
:10008C0080000CE00093810000916F0002600093EF
:10009C006F000FEF0AB904B900E0402E789400E02D
:1000AC0010E00BB825B8D8DF1BB835B8D5DFF9CFC1
:00000001FF
