:020000020000FC
:040000000C94580004
:10002C000C9423004CA1144CA2044C8C3454940416
:10003C0061A41462A40464A414000F930FB70F936B
:10004C002A9400E0201609F413D004D00F910FBFAE
:10005C000F91189500E0402E022D0A301CF04394AD
:10006C000A50FBCF302E00E2400E00E1300E089516
:10007C0005E1501609F402D006D00895E0E3F0E053
:10008C0000E0502E089505905394159053942590AC
:10009C005394089560E05EE340E841505040604066
:1000AC00E0F708950FEF0DBF08E00EBF04EF0093CB
:1000BC00890004E20093880000E0009380000CE0CB
:1000CC000093810000916F00026000936F000FEFAE
:1000DC000AB904B9D3DFD7DFBDDF78940BB835B8D4
:0A00EC00D9DF1BB845B8D6DFF9CF05
:00000001FF
